{
  "contractName": "Disney",
  "abi": [
    {
      "inputs": [],
      "stateMutability": "nonpayable",
      "type": "constructor"
    },
    {
      "anonymous": false,
      "inputs": [
        {
          "indexed": false,
          "internalType": "string",
          "name": "",
          "type": "string"
        }
      ],
      "name": "baja_atraccion",
      "type": "event"
    },
    {
      "anonymous": false,
      "inputs": [
        {
          "indexed": false,
          "internalType": "string",
          "name": "",
          "type": "string"
        }
      ],
      "name": "baja_comida",
      "type": "event"
    },
    {
      "anonymous": false,
      "inputs": [
        {
          "indexed": false,
          "internalType": "string",
          "name": "",
          "type": "string"
        },
        {
          "indexed": false,
          "internalType": "uint256",
          "name": "",
          "type": "uint256"
        },
        {
          "indexed": false,
          "internalType": "address",
          "name": "",
          "type": "address"
        }
      ],
      "name": "disfruta_atraccion",
      "type": "event"
    },
    {
      "anonymous": false,
      "inputs": [
        {
          "indexed": false,
          "internalType": "string",
          "name": "",
          "type": "string"
        },
        {
          "indexed": false,
          "internalType": "uint256",
          "name": "",
          "type": "uint256"
        },
        {
          "indexed": false,
          "internalType": "address",
          "name": "",
          "type": "address"
        }
      ],
      "name": "disfruta_comida",
      "type": "event"
    },
    {
      "anonymous": false,
      "inputs": [
        {
          "indexed": false,
          "internalType": "string",
          "name": "",
          "type": "string"
        },
        {
          "indexed": false,
          "internalType": "uint256",
          "name": "",
          "type": "uint256"
        }
      ],
      "name": "nueva_atraccion",
      "type": "event"
    },
    {
      "anonymous": false,
      "inputs": [
        {
          "indexed": false,
          "internalType": "string",
          "name": "",
          "type": "string"
        },
        {
          "indexed": false,
          "internalType": "uint256",
          "name": "",
          "type": "uint256"
        }
      ],
      "name": "nueva_comida",
      "type": "event"
    },
    {
      "inputs": [
        {
          "internalType": "address",
          "name": "",
          "type": "address"
        }
      ],
      "name": "clientes",
      "outputs": [
        {
          "internalType": "uint256",
          "name": "tokens_comprados",
          "type": "uint256"
        }
      ],
      "stateMutability": "view",
      "type": "function",
      "constant": true
    },
    {
      "inputs": [
        {
          "internalType": "string",
          "name": "",
          "type": "string"
        }
      ],
      "name": "mappingAtracciones",
      "outputs": [
        {
          "internalType": "string",
          "name": "nombre_atraccion",
          "type": "string"
        },
        {
          "internalType": "uint256",
          "name": "precio_atraccion",
          "type": "uint256"
        },
        {
          "internalType": "bool",
          "name": "estado_atraccion",
          "type": "bool"
        }
      ],
      "stateMutability": "view",
      "type": "function",
      "constant": true
    },
    {
      "inputs": [
        {
          "internalType": "string",
          "name": "",
          "type": "string"
        }
      ],
      "name": "mappingComidas",
      "outputs": [
        {
          "internalType": "string",
          "name": "nombre_comida",
          "type": "string"
        },
        {
          "internalType": "uint256",
          "name": "precio_comida",
          "type": "uint256"
        },
        {
          "internalType": "bool",
          "name": "estado_comida",
          "type": "bool"
        }
      ],
      "stateMutability": "view",
      "type": "function",
      "constant": true
    },
    {
      "inputs": [],
      "name": "owner",
      "outputs": [
        {
          "internalType": "address payable",
          "name": "",
          "type": "address"
        }
      ],
      "stateMutability": "view",
      "type": "function",
      "constant": true
    },
    {
      "inputs": [
        {
          "internalType": "uint256",
          "name": "_numTokens",
          "type": "uint256"
        }
      ],
      "name": "compraToken",
      "outputs": [],
      "stateMutability": "payable",
      "type": "function",
      "payable": true
    },
    {
      "inputs": [],
      "name": "getPrecioToken",
      "outputs": [
        {
          "internalType": "uint256",
          "name": "",
          "type": "uint256"
        }
      ],
      "stateMutability": "pure",
      "type": "function",
      "constant": true
    },
    {
      "inputs": [],
      "name": "balanceOf",
      "outputs": [
        {
          "internalType": "uint256",
          "name": "",
          "type": "uint256"
        }
      ],
      "stateMutability": "view",
      "type": "function",
      "constant": true
    },
    {
      "inputs": [],
      "name": "getMisTokens",
      "outputs": [
        {
          "internalType": "uint256",
          "name": "",
          "type": "uint256"
        }
      ],
      "stateMutability": "view",
      "type": "function",
      "constant": true
    },
    {
      "inputs": [
        {
          "internalType": "uint256",
          "name": "_numTokens",
          "type": "uint256"
        }
      ],
      "name": "generaToken",
      "outputs": [],
      "stateMutability": "nonpayable",
      "type": "function"
    },
    {
      "inputs": [
        {
          "internalType": "string",
          "name": "_nombreAtraccion",
          "type": "string"
        },
        {
          "internalType": "uint256",
          "name": "_precio",
          "type": "uint256"
        }
      ],
      "name": "nuevaAtraccion",
      "outputs": [],
      "stateMutability": "nonpayable",
      "type": "function"
    },
    {
      "inputs": [
        {
          "internalType": "string",
          "name": "_nombreMenu",
          "type": "string"
        },
        {
          "internalType": "uint256",
          "name": "_precio",
          "type": "uint256"
        }
      ],
      "name": "crearMenus",
      "outputs": [],
      "stateMutability": "nonpayable",
      "type": "function"
    },
    {
      "inputs": [
        {
          "internalType": "string",
          "name": "_nombreComida",
          "type": "string"
        }
      ],
      "name": "bajaComida",
      "outputs": [],
      "stateMutability": "nonpayable",
      "type": "function"
    },
    {
      "inputs": [
        {
          "internalType": "string",
          "name": "_nombreAtraccion",
          "type": "string"
        }
      ],
      "name": "bajaAtraccion",
      "outputs": [],
      "stateMutability": "nonpayable",
      "type": "function"
    },
    {
      "inputs": [],
      "name": "atraccionesDisponibles",
      "outputs": [
        {
          "internalType": "string[]",
          "name": "",
          "type": "string[]"
        }
      ],
      "stateMutability": "view",
      "type": "function",
      "constant": true
    },
    {
      "inputs": [],
      "name": "comidasDisponibles",
      "outputs": [
        {
          "internalType": "string[]",
          "name": "",
          "type": "string[]"
        }
      ],
      "stateMutability": "view",
      "type": "function",
      "constant": true
    },
    {
      "inputs": [
        {
          "internalType": "string",
          "name": "_nombreAtraccion",
          "type": "string"
        }
      ],
      "name": "subirseAtraccion",
      "outputs": [],
      "stateMutability": "nonpayable",
      "type": "function"
    },
    {
      "inputs": [
        {
          "internalType": "string",
          "name": "_nombreComida",
          "type": "string"
        }
      ],
      "name": "comprarComida",
      "outputs": [],
      "stateMutability": "nonpayable",
      "type": "function"
    },
    {
      "inputs": [],
      "name": "historialAtraccionesDisfrutadas",
      "outputs": [
        {
          "internalType": "string[]",
          "name": "",
          "type": "string[]"
        }
      ],
      "stateMutability": "view",
      "type": "function",
      "constant": true
    },
    {
      "inputs": [],
      "name": "historialComidasDisfrutadas",
      "outputs": [
        {
          "internalType": "string[]",
          "name": "",
          "type": "string[]"
        }
      ],
      "stateMutability": "view",
      "type": "function",
      "constant": true
    },
    {
      "inputs": [
        {
          "internalType": "uint256",
          "name": "_numTokens",
          "type": "uint256"
        }
      ],
      "name": "devolverTokens",
      "outputs": [],
      "stateMutability": "payable",
      "type": "function",
      "payable": true
    }
  ],
  "bytecode": "0x60806040523480156200001157600080fd5b50620186a06040516200002490620000d4565b620000309190620000f3565b604051809103906000f0801580156200004d573d6000803e3d6000fd5b506000806101000a81548173ffffffffffffffffffffffffffffffffffffffff021916908373ffffffffffffffffffffffffffffffffffffffff16021790555033600160006101000a81548173ffffffffffffffffffffffffffffffffffffffff021916908373ffffffffffffffffffffffffffffffffffffffff1602179055506200012e565b61109d806200298083390190565b620000ed816200011a565b82525050565b60006020820190506200010a6000830184620000e2565b92915050565b6000819050919050565b6000620001278262000110565b9050919050565b612842806200013e6000396000f3fe60806040526004361061011f5760003560e01c80638fd45887116100a0578063e8081c6d11610064578063e8081c6d146103bf578063eb629aad146103e8578063f367a89314610411578063f39525a41461043a578063f78cf428146104655761011f565b80638fd45887146102fb5780639584517014610324578063b7f3727b1461034d578063c01374f114610369578063ca3fbf56146103945761011f565b8063652b67aa116100e7578063652b67aa146101fe578063722713f71461023d57806374b23349146102685780638da5cb5b146102a55780638dba8c0b146102d05761011f565b806303a2b24d1461012457806314b9a7351461014f5780632e95161c1461018e57806333ea0db2146101aa578063369ccfaa146101d3575b600080fd5b34801561013057600080fd5b5061013961048e565b60405161014691906125ff565b60405180910390f35b34801561015b57600080fd5b5061017660048036038101906101719190611d1f565b61053f565b60405161018593929190612481565b60405180910390f35b6101a860048036038101906101a39190611db4565b610624565b005b3480156101b657600080fd5b506101d160048036038101906101cc9190611d1f565b6107b3565b005b3480156101df57600080fd5b506101e8610a00565b6040516101f591906123cf565b60405180910390f35b34801561020a57600080fd5b5061022560048036038101906102209190611d1f565b610ae9565b60405161023493929190612481565b60405180910390f35b34801561024957600080fd5b50610252610bce565b60405161025f91906125ff565b60405180910390f35b34801561027457600080fd5b5061028f600480360381019061028a9190611ccd565b610c7f565b60405161029c91906125ff565b60405180910390f35b3480156102b157600080fd5b506102ba610c9d565b6040516102c79190612354565b60405180910390f35b3480156102dc57600080fd5b506102e5610cc3565b6040516102f291906123cf565b60405180910390f35b34801561030757600080fd5b50610322600480360381019061031d9190611d1f565b610dac565b005b34801561033057600080fd5b5061034b60048036038101906103469190611d60565b610f27565b005b61036760048036038101906103629190611db4565b6110b8565b005b34801561037557600080fd5b5061037e6112a0565b60405161038b91906123cf565b60405180910390f35b3480156103a057600080fd5b506103a96113c6565b6040516103b691906125ff565b60405180910390f35b3480156103cb57600080fd5b506103e660048036038101906103e19190611d60565b6113d6565b005b3480156103f457600080fd5b5061040f600480360381019061040a9190611db4565b611567565b005b34801561041d57600080fd5b5061043860048036038101906104339190611d1f565b611687565b005b34801561044657600080fd5b5061044f611802565b60405161045c91906123cf565b60405180910390f35b34801561047157600080fd5b5061048c60048036038101906104879190611d1f565b611928565b005b60008060009054906101000a900473ffffffffffffffffffffffffffffffffffffffff1673ffffffffffffffffffffffffffffffffffffffff166370a08231336040518263ffffffff1660e01b81526004016104ea9190612339565b60206040518083038186803b15801561050257600080fd5b505afa158015610516573d6000803e3d6000fd5b505050506040513d601f19601f8201168201806040525081019061053a9190611ddd565b905090565b600481805160208101820180518482526020830160208501208183528095505050505050600091509050806000018054600181600116156101000203166002900480601f0160208091040260200160405190810160405280929190818152602001828054600181600116156101000203166002900480156106015780601f106105d657610100808354040283529160200191610601565b820191906000526020600020905b8154815290600101906020018083116105e457829003601f168201915b5050505050908060010154908060020160009054906101000a900460ff16905083565b60008111610667576040517f08c379a000000000000000000000000000000000000000000000000000000000815260040161065e906124df565b60405180910390fd5b61066f61048e565b8111156106b1576040517f08c379a00000000000000000000000000000000000000000000000000000000081526004016106a8906124bf565b60405180910390fd5b60008054906101000a900473ffffffffffffffffffffffffffffffffffffffff1673ffffffffffffffffffffffffffffffffffffffff1663503e6de13330846040518463ffffffff1660e01b815260040161070e9392919061236f565b602060405180830381600087803b15801561072857600080fd5b505af115801561073c573d6000803e3d6000fd5b505050506040513d601f19601f820116820180604052508101906107609190611cf6565b503373ffffffffffffffffffffffffffffffffffffffff166108fc61078483611b75565b9081150290604051600060405180830381858888f193505050501580156107af573d6000803e3d6000fd5b5050565b60006003826040516107c59190612307565b9081526020016040518091039020600101549050600115156003836040516107ed9190612307565b908152602001604051809103902060020160009054906101000a900460ff1615151461084e576040517f08c379a0000000000000000000000000000000000000000000000000000000008152600401610845906125df565b60405180910390fd5b61085661048e565b811115610898576040517f08c379a000000000000000000000000000000000000000000000000000000000815260040161088f9061251f565b60405180910390fd5b60008054906101000a900473ffffffffffffffffffffffffffffffffffffffff1673ffffffffffffffffffffffffffffffffffffffff1663503e6de13330846040518463ffffffff1660e01b81526004016108f59392919061236f565b602060405180830381600087803b15801561090f57600080fd5b505af1158015610923573d6000803e3d6000fd5b505050506040513d601f19601f820116820180604052508101906109479190611cf6565b50600760003373ffffffffffffffffffffffffffffffffffffffff1673ffffffffffffffffffffffffffffffffffffffff168152602001908152602001600020829080600181540180825580915050600190039060005260206000200160009091909190915090805190602001906109c0929190611b88565b507f7246a03edf415ab10aa2e7868f4768980d024a3a86ab68f98fcc21567c2f26d78282336040516109f493929190612443565b60405180910390a15050565b60606005805480602002602001604051908101604052809291908181526020016000905b82821015610ae0578382906000526020600020018054600181600116156101000203166002900480601f016020809104026020016040519081016040528092919081815260200182805460018160011615610100020316600290048015610acc5780601f10610aa157610100808354040283529160200191610acc565b820191906000526020600020905b815481529060010190602001808311610aaf57829003601f168201915b505050505081526020019060010190610a24565b50505050905090565b600381805160208101820180518482526020830160208501208183528095505050505050600091509050806000018054600181600116156101000203166002900480601f016020809104026020016040519081016040528092919081815260200182805460018160011615610100020316600290048015610bab5780601f10610b8057610100808354040283529160200191610bab565b820191906000526020600020905b815481529060010190602001808311610b8e57829003601f168201915b5050505050908060010154908060020160009054906101000a900460ff16905083565b60008060009054906101000a900473ffffffffffffffffffffffffffffffffffffffff1673ffffffffffffffffffffffffffffffffffffffff166370a08231306040518263ffffffff1660e01b8152600401610c2a919061231e565b60206040518083038186803b158015610c4257600080fd5b505afa158015610c56573d6000803e3d6000fd5b505050506040513d601f19601f82011682018060405250810190610c7a9190611ddd565b905090565b60026020528060005260406000206000915090508060000154905081565b600160009054906101000a900473ffffffffffffffffffffffffffffffffffffffff1681565b60606006805480602002602001604051908101604052809291908181526020016000905b82821015610da3578382906000526020600020018054600181600116156101000203166002900480601f016020809104026020016040519081016040528092919081815260200182805460018160011615610100020316600290048015610d8f5780601f10610d6457610100808354040283529160200191610d8f565b820191906000526020600020905b815481529060010190602001808311610d7257829003601f168201915b505050505081526020019060010190610ce7565b50505050905090565b33600160009054906101000a900473ffffffffffffffffffffffffffffffffffffffff1673ffffffffffffffffffffffffffffffffffffffff168173ffffffffffffffffffffffffffffffffffffffff1614610e3d576040517f08c379a0000000000000000000000000000000000000000000000000000000008152600401610e349061257f565b60405180910390fd5b60011515600483604051610e519190612307565b908152602001604051809103902060020160009054906101000a900460ff16151514610eb2576040517f08c379a0000000000000000000000000000000000000000000000000000000008152600401610ea99061253f565b60405180910390fd5b6000600483604051610ec49190612307565b908152602001604051809103902060020160006101000a81548160ff0219169083151502179055507fc08b02ec29b10837b03ba712be7196ccd02824c57a727dbd6c9718051c9437c682604051610f1b91906123f1565b60405180910390a15050565b33600160009054906101000a900473ffffffffffffffffffffffffffffffffffffffff1673ffffffffffffffffffffffffffffffffffffffff168173ffffffffffffffffffffffffffffffffffffffff1614610fb8576040517f08c379a0000000000000000000000000000000000000000000000000000000008152600401610faf9061257f565b60405180910390fd5b604051806060016040528084815260200183815260200160011515815250600484604051610fe69190612307565b90815260200160405180910390206000820151816000019080519060200190611010929190611b88565b506020820151816001015560408201518160020160006101000a81548160ff021916908315150217905550905050600683908060018154018082558091505060019003906000526020600020016000909190919091509080519060200190611079929190611b88565b507f8e30f0bfd641cc6e305b31c187238475341a0a53bebf43813855be7183db15b883836040516110ab929190612413565b60405180910390a1505050565b60006110c382611b75565b905080341015611108576040517f08c379a00000000000000000000000000000000000000000000000000000000081526004016110ff906125bf565b60405180910390fd5b600081340390503373ffffffffffffffffffffffffffffffffffffffff166108fc829081150290604051600060405180830381858888f19350505050158015611155573d6000803e3d6000fd5b506000611160610bce565b9050808411156111a5576040517f08c379a000000000000000000000000000000000000000000000000000000000815260040161119c9061255f565b60405180910390fd5b60008054906101000a900473ffffffffffffffffffffffffffffffffffffffff1673ffffffffffffffffffffffffffffffffffffffff1663a9059cbb33866040518363ffffffff1660e01b81526004016112009291906123a6565b602060405180830381600087803b15801561121a57600080fd5b505af115801561122e573d6000803e3d6000fd5b505050506040513d601f19601f820116820180604052508101906112529190611cf6565b5083600260003373ffffffffffffffffffffffffffffffffffffffff1673ffffffffffffffffffffffffffffffffffffffff1681526020019081526020016000206000018190555050505050565b6060600760003373ffffffffffffffffffffffffffffffffffffffff1673ffffffffffffffffffffffffffffffffffffffff168152602001908152602001600020805480602002602001604051908101604052809291908181526020016000905b828210156113bd578382906000526020600020018054600181600116156101000203166002900480601f0160208091040260200160405190810160405280929190818152602001828054600181600116156101000203166002900480156113a95780601f1061137e576101008083540402835291602001916113a9565b820191906000526020600020905b81548152906001019060200180831161138c57829003601f168201915b505050505081526020019060010190611301565b50505050905090565b6000670de0b6b3a7640000905090565b33600160009054906101000a900473ffffffffffffffffffffffffffffffffffffffff1673ffffffffffffffffffffffffffffffffffffffff168173ffffffffffffffffffffffffffffffffffffffff1614611467576040517f08c379a000000000000000000000000000000000000000000000000000000000815260040161145e9061257f565b60405180910390fd5b6040518060600160405280848152602001838152602001600115158152506003846040516114959190612307565b908152602001604051809103902060008201518160000190805190602001906114bf929190611b88565b506020820151816001015560408201518160020160006101000a81548160ff021916908315150217905550905050600583908060018154018082558091505060019003906000526020600020016000909190919091509080519060200190611528929190611b88565b507ffc9ecd7a6c2ca96d38526a0b9cc22f2474ff8e596dd348edaab06be905ebe378838360405161155a929190612413565b60405180910390a1505050565b33600160009054906101000a900473ffffffffffffffffffffffffffffffffffffffff1673ffffffffffffffffffffffffffffffffffffffff168173ffffffffffffffffffffffffffffffffffffffff16146115f8576040517f08c379a00000000000000000000000000000000000000000000000000000000081526004016115ef9061257f565b60405180910390fd5b60008054906101000a900473ffffffffffffffffffffffffffffffffffffffff1673ffffffffffffffffffffffffffffffffffffffff16631d43cc98836040518263ffffffff1660e01b815260040161165191906125ff565b600060405180830381600087803b15801561166b57600080fd5b505af115801561167f573d6000803e3d6000fd5b505050505050565b33600160009054906101000a900473ffffffffffffffffffffffffffffffffffffffff1673ffffffffffffffffffffffffffffffffffffffff168173ffffffffffffffffffffffffffffffffffffffff1614611718576040517f08c379a000000000000000000000000000000000000000000000000000000000815260040161170f9061257f565b60405180910390fd5b6001151560038360405161172c9190612307565b908152602001604051809103902060020160009054906101000a900460ff1615151461178d576040517f08c379a0000000000000000000000000000000000000000000000000000000008152600401611784906124ff565b60405180910390fd5b600060038360405161179f9190612307565b908152602001604051809103902060020160006101000a81548160ff0219169083151502179055507f24ba6c881728980191398db8dcfd8ed4f6aeb1c08df349d63f3b85075f3e86dd826040516117f691906123f1565b60405180910390a15050565b6060600860003373ffffffffffffffffffffffffffffffffffffffff1673ffffffffffffffffffffffffffffffffffffffff168152602001908152602001600020805480602002602001604051908101604052809291908181526020016000905b8282101561191f578382906000526020600020018054600181600116156101000203166002900480601f01602080910402602001604051908101604052809291908181526020018280546001816001161561010002031660029004801561190b5780601f106118e05761010080835404028352916020019161190b565b820191906000526020600020905b8154815290600101906020018083116118ee57829003601f168201915b505050505081526020019060010190611863565b50505050905090565b600060048260405161193a9190612307565b9081526020016040518091039020600101549050600115156004836040516119629190612307565b908152602001604051809103902060020160009054906101000a900460ff161515146119c3576040517f08c379a00000000000000000000000000000000000000000000000000000000081526004016119ba9061259f565b60405180910390fd5b6119cb61048e565b811115611a0d576040517f08c379a0000000000000000000000000000000000000000000000000000000008152600401611a049061251f565b60405180910390fd5b60008054906101000a900473ffffffffffffffffffffffffffffffffffffffff1673ffffffffffffffffffffffffffffffffffffffff1663503e6de13330846040518463ffffffff1660e01b8152600401611a6a9392919061236f565b602060405180830381600087803b158015611a8457600080fd5b505af1158015611a98573d6000803e3d6000fd5b505050506040513d601f19601f82011682018060405250810190611abc9190611cf6565b50600860003373ffffffffffffffffffffffffffffffffffffffff1673ffffffffffffffffffffffffffffffffffffffff16815260200190815260200160002082908060018154018082558091505060019003906000526020600020016000909190919091509080519060200190611b35929190611b88565b507f85ef3e0aa2f5a1974f940061956e15261f5ce81cdb010a26d5760e9d0c47b4d3828233604051611b6993929190612443565b60405180910390a15050565b6000611b7f6113c6565b82029050919050565b828054600181600116156101000203166002900490600052602060002090601f016020900481019282601f10611bc957805160ff1916838001178555611bf7565b82800160010185558215611bf7579182015b82811115611bf6578251825591602001919060010190611bdb565b5b509050611c049190611c08565b5090565b5b80821115611c21576000816000905550600101611c09565b5090565b600081359050611c34816127c7565b92915050565b600081519050611c49816127de565b92915050565b600082601f830112611c6057600080fd5b8135611c73611c6e82612647565b61261a565b91508082526020830160208301858383011115611c8f57600080fd5b611c9a838284612774565b50505092915050565b600081359050611cb2816127f5565b92915050565b600081519050611cc7816127f5565b92915050565b600060208284031215611cdf57600080fd5b6000611ced84828501611c25565b91505092915050565b600060208284031215611d0857600080fd5b6000611d1684828501611c3a565b91505092915050565b600060208284031215611d3157600080fd5b600082013567ffffffffffffffff811115611d4b57600080fd5b611d5784828501611c4f565b91505092915050565b60008060408385031215611d7357600080fd5b600083013567ffffffffffffffff811115611d8d57600080fd5b611d9985828601611c4f565b9250506020611daa85828601611ca3565b9150509250929050565b600060208284031215611dc657600080fd5b6000611dd484828501611ca3565b91505092915050565b600060208284031215611def57600080fd5b6000611dfd84828501611cb8565b91505092915050565b6000611e128383611ecb565b905092915050565b611e238161273e565b82525050565b611e32816126f6565b82525050565b611e41816126e4565b82525050565b6000611e5282612683565b611e5c81856126a6565b935083602082028501611e6e85612673565b8060005b85811015611eaa5784840389528151611e8b8582611e06565b9450611e9683612699565b925060208a01995050600181019050611e72565b50829750879550505050505092915050565b611ec581612708565b82525050565b6000611ed68261268e565b611ee081856126b7565b9350611ef0818560208601612783565b611ef9816127b6565b840191505092915050565b6000611f0f8261268e565b611f1981856126c8565b9350611f29818560208601612783565b611f32816127b6565b840191505092915050565b6000611f488261268e565b611f5281856126d9565b9350611f62818560208601612783565b80840191505092915050565b6000611f7b6026836126c8565b91507f4e6f207469656e65206c6f7320746f6b656e732071756520646573656120646560008301527f766f6c76657200000000000000000000000000000000000000000000000000006020830152604082019050919050565b6000611fe16034836126c8565b91507f506f72206661766f722c20696e74726f6475636520756e612063616e7469646160008301527f6420706f73697469766120646520746f6b656e730000000000000000000000006020830152604082019050919050565b6000612047602d836126c8565b91507f4c6120617472616363696f6e206e6f20657869737465206f207961206573746160008301527f20646164612064652062616a61000000000000000000000000000000000000006020830152604082019050919050565b60006120ad6038836126c8565b91507f4e6f207469656e657320737566696369656e74657320746f6b656e732070617260008301527f61206d6f6e74617220656e206c6120617472616363696f6e00000000000000006020830152604082019050919050565b6000612113602a836126c8565b91507f4c6120636f6d696461206e6f20657869737465206f207961206573746120646160008301527f64612064652062616a61000000000000000000000000000000000000000000006020830152604082019050919050565b60006121796020836126c8565b91507f436f6d70726120756e206e756d65726f206d656e6f7220646520746f6b656e736000830152602082019050919050565b60006121b9602d836126c8565b91507f4e6f207469656e6573207065726d69736f73207061726120656a65637574617260008301527f20657374612066756e63696f6e000000000000000000000000000000000000006020830152604082019050919050565b600061221f601c836126c8565b91507f4c6120636f6d696461206e6f206573746120646973706f6e69626c65000000006000830152602082019050919050565b600061225f6036836126c8565b91507f4e6f207469656e657320737566696369656e746520656874657273207061726160008301527f20636f6d707261722074616e746f7320746f6b656e73000000000000000000006020830152604082019050919050565b60006122c5601f836126c8565b91507f4c6120617472616363696f6e206e6f206573746120646973706f6e69626c65006000830152602082019050919050565b61230181612734565b82525050565b60006123138284611f3d565b915081905092915050565b60006020820190506123336000830184611e38565b92915050565b600060208201905061234e6000830184611e1a565b92915050565b60006020820190506123696000830184611e29565b92915050565b60006060820190506123846000830186611e1a565b6123916020830185611e38565b61239e60408301846122f8565b949350505050565b60006040820190506123bb6000830185611e1a565b6123c860208301846122f8565b9392505050565b600060208201905081810360008301526123e98184611e47565b905092915050565b6000602082019050818103600083015261240b8184611f04565b905092915050565b6000604082019050818103600083015261242d8185611f04565b905061243c60208301846122f8565b9392505050565b6000606082019050818103600083015261245d8186611f04565b905061246c60208301856122f8565b6124796040830184611e1a565b949350505050565b6000606082019050818103600083015261249b8186611f04565b90506124aa60208301856122f8565b6124b76040830184611ebc565b949350505050565b600060208201905081810360008301526124d881611f6e565b9050919050565b600060208201905081810360008301526124f881611fd4565b9050919050565b600060208201905081810360008301526125188161203a565b9050919050565b60006020820190508181036000830152612538816120a0565b9050919050565b6000602082019050818103600083015261255881612106565b9050919050565b600060208201905081810360008301526125788161216c565b9050919050565b60006020820190508181036000830152612598816121ac565b9050919050565b600060208201905081810360008301526125b881612212565b9050919050565b600060208201905081810360008301526125d881612252565b9050919050565b600060208201905081810360008301526125f8816122b8565b9050919050565b600060208201905061261460008301846122f8565b92915050565b6000604051905081810181811067ffffffffffffffff8211171561263d57600080fd5b8060405250919050565b600067ffffffffffffffff82111561265e57600080fd5b601f19601f8301169050602081019050919050565b6000819050602082019050919050565b600081519050919050565b600081519050919050565b6000602082019050919050565b600082825260208201905092915050565b600082825260208201905092915050565b600082825260208201905092915050565b600081905092915050565b60006126ef82612714565b9050919050565b600061270182612714565b9050919050565b60008115159050919050565b600073ffffffffffffffffffffffffffffffffffffffff82169050919050565b6000819050919050565b600061274982612750565b9050919050565b600061275b82612762565b9050919050565b600061276d82612714565b9050919050565b82818337600083830152505050565b60005b838110156127a1578082015181840152602081019050612786565b838111156127b0576000848401525b50505050565b6000601f19601f8301169050919050565b6127d0816126e4565b81146127db57600080fd5b50565b6127e781612708565b81146127f257600080fd5b50565b6127fe81612734565b811461280957600080fd5b5056fea2646970667358221220a26393397e61b5f9789e65e7538827e36e759e0c610d84ee22f24aef6a3195d364736f6c634300060c0033608060405234801561001057600080fd5b5060405161109d38038061109d83398181016040528101906100329190610099565b806002819055506002546000803373ffffffffffffffffffffffffffffffffffffffff1673ffffffffffffffffffffffffffffffffffffffff16815260200190815260200160002081905550506100e3565b600081519050610093816100cc565b92915050565b6000602082840312156100ab57600080fd5b60006100b984828501610084565b91505092915050565b6000819050919050565b6100d5816100c2565b81146100e057600080fd5b50565b610fab806100f26000396000f3fe608060405234801561001057600080fd5b50600436106100a95760003560e01c8063313ce56711610071578063313ce56714610166578063503e6de11461018457806370a08231146101b457806395d89b41146101e4578063a9059cbb14610202578063dd62ed3e14610232576100a9565b806306fdde03146100ae578063095ea7b3146100cc57806318160ddd146100fc5780631d43cc981461011a57806323b872dd14610136575b600080fd5b6100b6610262565b6040516100c39190610e3a565b60405180910390f35b6100e660048036038101906100e19190610d54565b61029b565b6040516100f39190610e1f565b60405180910390f35b61010461038d565b6040516101119190610e5c565b60405180910390f35b610134600480360381019061012f9190610d90565b610397565b005b610150600480360381019061014b9190610d05565b6103f6565b60405161015d9190610e1f565b60405180910390f35b61016e610771565b60405161017b9190610e77565b60405180910390f35b61019e60048036038101906101999190610d05565b610776565b6040516101ab9190610e1f565b60405180910390f35b6101ce60048036038101906101c99190610ca0565b610959565b6040516101db9190610e5c565b60405180910390f35b6101ec6109a1565b6040516101f99190610e3a565b60405180910390f35b61021c60048036038101906102179190610d54565b6109da565b6040516102299190610e1f565b60405180910390f35b61024c60048036038101906102479190610cc9565b610bbc565b6040516102599190610e5c565b60405180910390f35b6040518060400160405280600681526020017f455243414452000000000000000000000000000000000000000000000000000081525081565b600081600160003373ffffffffffffffffffffffffffffffffffffffff1673ffffffffffffffffffffffffffffffffffffffff16815260200190815260200160002060008573ffffffffffffffffffffffffffffffffffffffff1673ffffffffffffffffffffffffffffffffffffffff168152602001908152602001600020819055508273ffffffffffffffffffffffffffffffffffffffff163373ffffffffffffffffffffffffffffffffffffffff167f8c5be1e5ebec7d5bd14f71427d1e84f3dd0314c0f7b2291e5b200ac8c7c3b9258460405161037b9190610e5c565b60405180910390a36001905092915050565b6000600254905090565b80600260008282540192505081905550806000803373ffffffffffffffffffffffffffffffffffffffff1673ffffffffffffffffffffffffffffffffffffffff1681526020019081526020016000206000828254019250508190555050565b60008060008573ffffffffffffffffffffffffffffffffffffffff1673ffffffffffffffffffffffffffffffffffffffff1681526020019081526020016000205482111561044357600080fd5b600160008573ffffffffffffffffffffffffffffffffffffffff1673ffffffffffffffffffffffffffffffffffffffff16815260200190815260200160002060003373ffffffffffffffffffffffffffffffffffffffff1673ffffffffffffffffffffffffffffffffffffffff168152602001908152602001600020548211156104cc57600080fd5b61051d826000808773ffffffffffffffffffffffffffffffffffffffff1673ffffffffffffffffffffffffffffffffffffffff16815260200190815260200160002054610c4390919063ffffffff16565b6000808673ffffffffffffffffffffffffffffffffffffffff1673ffffffffffffffffffffffffffffffffffffffff168152602001908152602001600020819055506105ee82600160008773ffffffffffffffffffffffffffffffffffffffff1673ffffffffffffffffffffffffffffffffffffffff16815260200190815260200160002060003373ffffffffffffffffffffffffffffffffffffffff1673ffffffffffffffffffffffffffffffffffffffff16815260200190815260200160002054610c4390919063ffffffff16565b600160008673ffffffffffffffffffffffffffffffffffffffff1673ffffffffffffffffffffffffffffffffffffffff16815260200190815260200160002060003373ffffffffffffffffffffffffffffffffffffffff1673ffffffffffffffffffffffffffffffffffffffff168152602001908152602001600020819055506106bf826000808673ffffffffffffffffffffffffffffffffffffffff1673ffffffffffffffffffffffffffffffffffffffff16815260200190815260200160002054610c5a90919063ffffffff16565b6000808573ffffffffffffffffffffffffffffffffffffffff1673ffffffffffffffffffffffffffffffffffffffff168152602001908152602001600020819055508273ffffffffffffffffffffffffffffffffffffffff168473ffffffffffffffffffffffffffffffffffffffff167fddf252ad1be2c89b69c2b068fc378daa952ba7f163c4a11628f55a4df523b3ef8460405161075e9190610e5c565b60405180910390a3600190509392505050565b600281565b60008060008573ffffffffffffffffffffffffffffffffffffffff1673ffffffffffffffffffffffffffffffffffffffff168152602001908152602001600020548211156107c357600080fd5b610814826000808773ffffffffffffffffffffffffffffffffffffffff1673ffffffffffffffffffffffffffffffffffffffff16815260200190815260200160002054610c4390919063ffffffff16565b6000808673ffffffffffffffffffffffffffffffffffffffff1673ffffffffffffffffffffffffffffffffffffffff168152602001908152602001600020819055506108a7826000808673ffffffffffffffffffffffffffffffffffffffff1673ffffffffffffffffffffffffffffffffffffffff16815260200190815260200160002054610c5a90919063ffffffff16565b6000808573ffffffffffffffffffffffffffffffffffffffff1673ffffffffffffffffffffffffffffffffffffffff168152602001908152602001600020819055508273ffffffffffffffffffffffffffffffffffffffff168473ffffffffffffffffffffffffffffffffffffffff167fddf252ad1be2c89b69c2b068fc378daa952ba7f163c4a11628f55a4df523b3ef846040516109469190610e5c565b60405180910390a3600190509392505050565b60008060008373ffffffffffffffffffffffffffffffffffffffff1673ffffffffffffffffffffffffffffffffffffffff168152602001908152602001600020549050919050565b6040518060400160405280600981526020017f4144522d746f6b656e000000000000000000000000000000000000000000000081525081565b60008060003373ffffffffffffffffffffffffffffffffffffffff1673ffffffffffffffffffffffffffffffffffffffff16815260200190815260200160002054821115610a2757600080fd5b610a78826000803373ffffffffffffffffffffffffffffffffffffffff1673ffffffffffffffffffffffffffffffffffffffff16815260200190815260200160002054610c4390919063ffffffff16565b6000803373ffffffffffffffffffffffffffffffffffffffff1673ffffffffffffffffffffffffffffffffffffffff16815260200190815260200160002081905550610b0b826000808673ffffffffffffffffffffffffffffffffffffffff1673ffffffffffffffffffffffffffffffffffffffff16815260200190815260200160002054610c5a90919063ffffffff16565b6000808573ffffffffffffffffffffffffffffffffffffffff1673ffffffffffffffffffffffffffffffffffffffff168152602001908152602001600020819055508273ffffffffffffffffffffffffffffffffffffffff163373ffffffffffffffffffffffffffffffffffffffff167fddf252ad1be2c89b69c2b068fc378daa952ba7f163c4a11628f55a4df523b3ef84604051610baa9190610e5c565b60405180910390a36001905092915050565b6000600160008473ffffffffffffffffffffffffffffffffffffffff1673ffffffffffffffffffffffffffffffffffffffff16815260200190815260200160002060008373ffffffffffffffffffffffffffffffffffffffff1673ffffffffffffffffffffffffffffffffffffffff16815260200190815260200160002054905092915050565b600082821115610c4f57fe5b818303905092915050565b600080828401905083811015610c6c57fe5b8091505092915050565b600081359050610c8581610f47565b92915050565b600081359050610c9a81610f5e565b92915050565b600060208284031215610cb257600080fd5b6000610cc084828501610c76565b91505092915050565b60008060408385031215610cdc57600080fd5b6000610cea85828601610c76565b9250506020610cfb85828601610c76565b9150509250929050565b600080600060608486031215610d1a57600080fd5b6000610d2886828701610c76565b9350506020610d3986828701610c76565b9250506040610d4a86828701610c8b565b9150509250925092565b60008060408385031215610d6757600080fd5b6000610d7585828601610c76565b9250506020610d8685828601610c8b565b9150509250929050565b600060208284031215610da257600080fd5b6000610db084828501610c8b565b91505092915050565b610dc281610ec0565b82525050565b6000610dd382610e92565b610ddd8185610e9d565b9350610ded818560208601610f03565b610df681610f36565b840191505092915050565b610e0a81610eec565b82525050565b610e1981610ef6565b82525050565b6000602082019050610e346000830184610db9565b92915050565b60006020820190508181036000830152610e548184610dc8565b905092915050565b6000602082019050610e716000830184610e01565b92915050565b6000602082019050610e8c6000830184610e10565b92915050565b600081519050919050565b600082825260208201905092915050565b6000610eb982610ecc565b9050919050565b60008115159050919050565b600073ffffffffffffffffffffffffffffffffffffffff82169050919050565b6000819050919050565b600060ff82169050919050565b60005b83811015610f21578082015181840152602081019050610f06565b83811115610f30576000848401525b50505050565b6000601f19601f8301169050919050565b610f5081610eae565b8114610f5b57600080fd5b50565b610f6781610eec565b8114610f7257600080fd5b5056fea2646970667358221220acba7d164c36137a3bc29fff24ff2853ebe4289a37981143bc81585c1878b16d64736f6c634300060c0033",
  "immutableReferences": {},
  "source": "//SPDX-License-Identifier: UNLICENSED\npragma solidity >=0.4.4 <0.9.0;\npragma experimental ABIEncoderV2;\nimport \"./ERC20.sol\";\n\ncontract Disney{\n    \n    \n    //------------------------------------------DECLARACIONES INICIALES----------------------------------------\n    //Instancia del contrato token\n    ERC20Basic private token;\n    \n    //Direccion de Disney\n    address payable public owner;\n  \n    //Constructor\n    constructor () public{\n        token = new ERC20Basic(100000);\n        owner = msg.sender;\n    }\n    \n    //Estructura de datos para almacenar los datos de los clientes\n    \n    struct cliente{\n        uint tokens_comprados;\n        string [] atracciones_disfrutadas;\n        \n    }\n    \n    //Mpaping para el registro de clientes\n    mapping (address => cliente ) public clientes;\n    \n    \n    //---------------------------------------------GESTION DE TOKENS-------------------------------------------------\n    \n    //Funcion para establecer el precio del TOKENS\n    function costeTokenAcomprar(uint _numToken) internal pure returns (uint){\n        //Conversion de token a Ethers 1 Token --> 1 ether\n        return _numToken*(getPrecioToken());\n    }\n    \n    //Funcion para comprar tokens en Disney\n    function compraToken (uint _numTokens) public payable {\n         \n        //coste de los tokens a comprar\n        uint coste = costeTokenAcomprar(_numTokens);\n   \n        //evaluacion del dinero que el cliente paga por los tokens\n        require(msg.value >= coste, \"No tienes suficiente ehters para comprar tantos tokens\");\n        //Cambio a devolver al cliente \n        uint returnValue = msg.value - coste;\n        //Disney devuelve el cambio al cliente\n        msg.sender.transfer(returnValue);\n        //Obtener num token disponible\n        uint balance = balanceOf();\n        require(_numTokens <= balance, \"Compra un numero menor de tokens\");\n        //Se transfiere el numero de tokens al cliente\n        token.transfer(msg.sender, _numTokens);\n        //Registro de tokens tokens_comprados\n        clientes[msg.sender].tokens_comprados = _numTokens;\n        \n        \n    }\n \n    //Return the token price\n    function getPrecioToken() public pure returns (uint){\n        return 1 ether;\n    }\n\n    //Balance de tokens del contrato dinsey\n    function balanceOf() public view returns (uint){\n        return token.balanceOf(address(this));\n    }\n    \n    // devolver mi numero de tokens\n    function getMisTokens() public view returns (uint){\n        return token.balanceOf(msg.sender);\n    }\n    \n    //generar mas tokens para dinsey\n    function generaToken(uint _numTokens) public only(msg.sender){\n        token.increaseTotalSupply(_numTokens);\n    }\n    \n    \n    //modificador para controlar las funciones ejecutrables por dinsey\n    modifier only(address _direccion){\n        require(_direccion == owner, \"No tienes permisos para ejecutar esta funcion\");\n        _;\n    }\n    \n      //---------------------------------------------GESTION DE dinsey-------------------------------------------------\n        \n    //Eventos\n    \n    event nueva_atraccion(string, uint);\n     event nueva_comida(string, uint);\n    event baja_atraccion(string);\n      event baja_comida(string);\n    event disfruta_atraccion(string,uint, address);\nevent disfruta_comida(string,uint, address);\n    \n    struct atraccion{\n        string nombre_atraccion;\n        uint precio_atraccion;\n        bool estado_atraccion;\n    }\n    \n    struct comida{\n        string nombre_comida;\n        uint precio_comida;\n        bool estado_comida;\n        \n    }\n    //Mapping para relacionar nombre de atracion con su estructura de datos\n    mapping (string => atraccion) public mappingAtracciones;\n     //Mapping para relacionar nombre de comida con su estructura de datos\n    mapping (string => comida) public mappingComidas;\n    //almacenar el nombre de las atracciones\n    string[] atracciones;\n    string[] comidas;\n    //mappgin para relacionar una identidad(cliente) con su historial en Disney\n    mapping (address => string[]) historialAtracciones;\n    mapping (address => string[]) historiaComidas;\n\n    //funcion para crear atracciones , solo dinsey podra crearlas\n    function nuevaAtraccion(string memory _nombreAtraccion, uint _precio) public only(msg.sender){\n        // creacion atraccion en Disney\n      mappingAtracciones[_nombreAtraccion] = atraccion(_nombreAtraccion, _precio, true);\n      atracciones.push(_nombreAtraccion);\n      //emisison evento nuevoa atracciones\n      emit nueva_atraccion(_nombreAtraccion, _precio);\n      \n        \n    }\n    \n    //Crear nuevos menus para la comida en Disney (solo ejecutable por Disney)\n    function crearMenus(string memory _nombreMenu, uint _precio) public only(msg.sender){\n             // creacion comida en Disney\n      mappingComidas[_nombreMenu] = comida(_nombreMenu, _precio, true);\n     comidas.push(_nombreMenu);\n      //emisison evento nuevoa atracciones\n      emit nueva_comida(_nombreMenu, _precio);  \n    }\n    \n    function bajaComida(string memory _nombreComida) public only(msg.sender){\n        require(mappingComidas[_nombreComida].estado_comida  == true, \"La comida no existe o ya esta dada de baja\");\n\n        //Cambiamos el estado de la atracciones\n         mappingComidas[_nombreComida].estado_comida = false;\n         //Emision del evento\n         emit baja_comida(_nombreComida);\n    }\n      \n    function bajaAtraccion(string memory _nombreAtraccion) public only(msg.sender){\n        require(mappingAtracciones[_nombreAtraccion].estado_atraccion  == true, \"La atraccion no existe o ya esta dada de baja\");\n\n        //Cambiamos el estado de la atracciones\n         mappingAtracciones[_nombreAtraccion].estado_atraccion = false;\n         //Emision del evento\n         emit baja_atraccion(_nombreAtraccion);\n    }\n        \n    function atraccionesDisponibles() public view returns(string [] memory){\n        \n        return atracciones;\n    }\n    \n      function comidasDisponibles() public view returns(string [] memory){\n        \n        return comidas;\n    }\n    \n    //Funcion para subirse a la atraccion y pagar\n    function subirseAtraccion(string memory _nombreAtraccion) public {\n        //precio de la atraccion\n        uint tokens_atraccion =  mappingAtracciones[_nombreAtraccion].precio_atraccion;\n    //verifica el estado de la atraccion\n            require(mappingAtracciones[_nombreAtraccion].estado_atraccion  == true, \"La atraccion no esta disponible\");\n            //Verificar el numero de tokens que tiene el cliente para subirse a la atraccion\n            require(tokens_atraccion <= getMisTokens(), \"No tienes suficientes tokens para montar en la atraccion\");\n            //cliente paga la atraccion\n            token.transfer_disney(msg.sender, address(this),tokens_atraccion );\n            //almacenar en el historialAtracciones\n            historialAtracciones[msg.sender].push(_nombreAtraccion);\n            emit disfruta_atraccion(_nombreAtraccion,tokens_atraccion, msg.sender);\n\n        \n    }\n    \n    //Funcion para subirse a la atraccion y pagar\n    function comprarComida(string memory _nombreComida) public {\n        //precio de la atraccion\n        uint tokens_comida =  mappingComidas[_nombreComida].precio_comida;\n    //verifica el estado de la atraccion\n            require( mappingComidas[_nombreComida].estado_comida  == true, \"La comida no esta disponible\");\n            //Verificar el numero de tokens que tiene el cliente para subirse a la atraccion\n            require(tokens_comida <= getMisTokens(), \"No tienes suficientes tokens para montar en la atraccion\");\n            //cliente paga la atraccion\n            token.transfer_disney(msg.sender, address(this),tokens_comida );\n            //almacenar en el historialAtracciones\n            historiaComidas[msg.sender].push(_nombreComida);\n            emit disfruta_comida(_nombreComida,tokens_comida, msg.sender);\n\n        \n    }\n    \n    function historialAtraccionesDisfrutadas() public view returns(string[] memory){\n        return historialAtracciones[msg.sender];\n    }\n     function historialComidasDisfrutadas() public view returns(string[] memory){\n        return historiaComidas[msg.sender];\n    }\n    \n    function devolverTokens(uint _numTokens) public payable{\n        //el numero de tokens a deolver es positivo\n        require(_numTokens>0, \"Por favor, introduce una cantidad positiva de tokens\");\n        //El usuario debe tener el num de tokens que desea devolver \n        require(_numTokens <= getMisTokens(), \"No tiene los tokens que desea devolver\");\n        //el cliente devuelve los tokens\n        token.transfer_disney(msg.sender, address(this), _numTokens);\n        //devolucion de los ethers al cliente\n        msg.sender.transfer(costeTokenAcomprar(_numTokens));\n\n        \n    }\n    \n}",
  "sourcePath": "C:\\personal\\proyectos Personales\\DineyToken app\\disney-token\\src\\contracts\\Disney.sol",
  "compiler": {
    "name": "solc",
    "version": "0.6.12+commit.27d51765.Emscripten.clang"
  },
  "schemaVersion": "3.4.4",
  "updatedAt": "2021-12-29T11:58:08.938Z",
  "networkType": "ethereum",
  "devdoc": {
    "kind": "dev",
    "methods": {},
    "version": 1
  },
  "userdoc": {
    "kind": "user",
    "methods": {},
    "version": 1
  }
}