{
  "contractName": "Disney",
  "abi": [
    {
      "inputs": [],
      "stateMutability": "nonpayable",
      "type": "constructor"
    },
    {
      "anonymous": false,
      "inputs": [
        {
          "indexed": false,
          "internalType": "string",
          "name": "",
          "type": "string"
        }
      ],
      "name": "baja_atraccion",
      "type": "event"
    },
    {
      "anonymous": false,
      "inputs": [
        {
          "indexed": false,
          "internalType": "string",
          "name": "",
          "type": "string"
        }
      ],
      "name": "baja_comida",
      "type": "event"
    },
    {
      "anonymous": false,
      "inputs": [
        {
          "indexed": false,
          "internalType": "string",
          "name": "",
          "type": "string"
        },
        {
          "indexed": false,
          "internalType": "uint256",
          "name": "",
          "type": "uint256"
        },
        {
          "indexed": false,
          "internalType": "address",
          "name": "",
          "type": "address"
        }
      ],
      "name": "disfruta_atraccion",
      "type": "event"
    },
    {
      "anonymous": false,
      "inputs": [
        {
          "indexed": false,
          "internalType": "string",
          "name": "",
          "type": "string"
        },
        {
          "indexed": false,
          "internalType": "uint256",
          "name": "",
          "type": "uint256"
        },
        {
          "indexed": false,
          "internalType": "address",
          "name": "",
          "type": "address"
        }
      ],
      "name": "disfruta_comida",
      "type": "event"
    },
    {
      "anonymous": false,
      "inputs": [
        {
          "indexed": false,
          "internalType": "string",
          "name": "",
          "type": "string"
        },
        {
          "indexed": false,
          "internalType": "uint256",
          "name": "",
          "type": "uint256"
        }
      ],
      "name": "nueva_atraccion",
      "type": "event"
    },
    {
      "anonymous": false,
      "inputs": [
        {
          "indexed": false,
          "internalType": "string",
          "name": "",
          "type": "string"
        },
        {
          "indexed": false,
          "internalType": "uint256",
          "name": "",
          "type": "uint256"
        }
      ],
      "name": "nueva_comida",
      "type": "event"
    },
    {
      "inputs": [
        {
          "internalType": "address",
          "name": "",
          "type": "address"
        }
      ],
      "name": "clientes",
      "outputs": [
        {
          "internalType": "uint256",
          "name": "tokens_comprados",
          "type": "uint256"
        }
      ],
      "stateMutability": "view",
      "type": "function",
      "constant": true
    },
    {
      "inputs": [
        {
          "internalType": "string",
          "name": "",
          "type": "string"
        }
      ],
      "name": "mappingAtracciones",
      "outputs": [
        {
          "internalType": "string",
          "name": "nombre_atraccion",
          "type": "string"
        },
        {
          "internalType": "uint256",
          "name": "precio_atraccion",
          "type": "uint256"
        },
        {
          "internalType": "bool",
          "name": "estado_atraccion",
          "type": "bool"
        }
      ],
      "stateMutability": "view",
      "type": "function",
      "constant": true
    },
    {
      "inputs": [
        {
          "internalType": "string",
          "name": "",
          "type": "string"
        }
      ],
      "name": "mappingComidas",
      "outputs": [
        {
          "internalType": "string",
          "name": "nombre_comida",
          "type": "string"
        },
        {
          "internalType": "uint256",
          "name": "precio_comida",
          "type": "uint256"
        },
        {
          "internalType": "bool",
          "name": "estado_comida",
          "type": "bool"
        }
      ],
      "stateMutability": "view",
      "type": "function",
      "constant": true
    },
    {
      "inputs": [],
      "name": "owner",
      "outputs": [
        {
          "internalType": "address payable",
          "name": "",
          "type": "address"
        }
      ],
      "stateMutability": "view",
      "type": "function",
      "constant": true
    },
    {
      "inputs": [
        {
          "internalType": "uint256",
          "name": "_numTokens",
          "type": "uint256"
        }
      ],
      "name": "compraToken",
      "outputs": [],
      "stateMutability": "payable",
      "type": "function",
      "payable": true
    },
    {
      "inputs": [],
      "name": "balanceOf",
      "outputs": [
        {
          "internalType": "uint256",
          "name": "",
          "type": "uint256"
        }
      ],
      "stateMutability": "view",
      "type": "function",
      "constant": true
    },
    {
      "inputs": [],
      "name": "getMisTokens",
      "outputs": [
        {
          "internalType": "uint256",
          "name": "",
          "type": "uint256"
        }
      ],
      "stateMutability": "view",
      "type": "function",
      "constant": true
    },
    {
      "inputs": [
        {
          "internalType": "uint256",
          "name": "_numTokens",
          "type": "uint256"
        }
      ],
      "name": "generaToken",
      "outputs": [],
      "stateMutability": "nonpayable",
      "type": "function"
    },
    {
      "inputs": [
        {
          "internalType": "string",
          "name": "_nombreAtraccion",
          "type": "string"
        },
        {
          "internalType": "uint256",
          "name": "_precio",
          "type": "uint256"
        }
      ],
      "name": "nuevaAtraccion",
      "outputs": [],
      "stateMutability": "nonpayable",
      "type": "function"
    },
    {
      "inputs": [
        {
          "internalType": "string",
          "name": "_nombreMenu",
          "type": "string"
        },
        {
          "internalType": "uint256",
          "name": "_precio",
          "type": "uint256"
        }
      ],
      "name": "crearMenus",
      "outputs": [],
      "stateMutability": "nonpayable",
      "type": "function"
    },
    {
      "inputs": [
        {
          "internalType": "string",
          "name": "_nombreComida",
          "type": "string"
        }
      ],
      "name": "bajaComida",
      "outputs": [],
      "stateMutability": "nonpayable",
      "type": "function"
    },
    {
      "inputs": [
        {
          "internalType": "string",
          "name": "_nombreAtraccion",
          "type": "string"
        }
      ],
      "name": "bajaAtraccion",
      "outputs": [],
      "stateMutability": "nonpayable",
      "type": "function"
    },
    {
      "inputs": [],
      "name": "atraccionesDisponibles",
      "outputs": [
        {
          "internalType": "string[]",
          "name": "",
          "type": "string[]"
        }
      ],
      "stateMutability": "view",
      "type": "function",
      "constant": true
    },
    {
      "inputs": [],
      "name": "comidasDisponibles",
      "outputs": [
        {
          "internalType": "string[]",
          "name": "",
          "type": "string[]"
        }
      ],
      "stateMutability": "view",
      "type": "function",
      "constant": true
    },
    {
      "inputs": [
        {
          "internalType": "string",
          "name": "_nombreAtraccion",
          "type": "string"
        }
      ],
      "name": "subirseAtraccion",
      "outputs": [],
      "stateMutability": "nonpayable",
      "type": "function"
    },
    {
      "inputs": [
        {
          "internalType": "string",
          "name": "_nombreComida",
          "type": "string"
        }
      ],
      "name": "comprarComida",
      "outputs": [],
      "stateMutability": "nonpayable",
      "type": "function"
    },
    {
      "inputs": [],
      "name": "historialAtraccionesDisfrutadas",
      "outputs": [
        {
          "internalType": "string[]",
          "name": "",
          "type": "string[]"
        }
      ],
      "stateMutability": "view",
      "type": "function",
      "constant": true
    },
    {
      "inputs": [],
      "name": "historialComidasDisfrutadas",
      "outputs": [
        {
          "internalType": "string[]",
          "name": "",
          "type": "string[]"
        }
      ],
      "stateMutability": "view",
      "type": "function",
      "constant": true
    },
    {
      "inputs": [
        {
          "internalType": "uint256",
          "name": "_numTokens",
          "type": "uint256"
        }
      ],
      "name": "devolverTokens",
      "outputs": [],
      "stateMutability": "payable",
      "type": "function",
      "payable": true
    }
  ],
  "bytecode": "0x60806040523480156200001157600080fd5b50620186a06040516200002490620000d4565b620000309190620000f3565b604051809103906000f0801580156200004d573d6000803e3d6000fd5b506000806101000a81548173ffffffffffffffffffffffffffffffffffffffff021916908373ffffffffffffffffffffffffffffffffffffffff16021790555033600160006101000a81548173ffffffffffffffffffffffffffffffffffffffff021916908373ffffffffffffffffffffffffffffffffffffffff1602179055506200012e565b61109d806200293b83390190565b620000ed816200011a565b82525050565b60006020820190506200010a6000830184620000e2565b92915050565b6000819050919050565b6000620001278262000110565b9050919050565b6127fd806200013e6000396000f3fe6080604052600436106101145760003560e01c80638dba8c0b116100a0578063e8081c6d11610064578063e8081c6d14610389578063eb629aad146103b2578063f367a893146103db578063f39525a414610404578063f78cf4281461042f57610114565b80638dba8c0b146102c55780638fd45887146102f05780639584517014610319578063b7f3727b14610342578063c01374f11461035e57610114565b8063369ccfaa116100e7578063369ccfaa146101c8578063652b67aa146101f3578063722713f71461023257806374b233491461025d5780638da5cb5b1461029a57610114565b806303a2b24d1461011957806314b9a735146101445780632e95161c1461018357806333ea0db21461019f575b600080fd5b34801561012557600080fd5b5061012e610458565b60405161013b91906125ba565b60405180910390f35b34801561015057600080fd5b5061016b60048036038101906101669190611cda565b610509565b60405161017a9392919061243c565b60405180910390f35b61019d60048036038101906101989190611d6f565b6105ee565b005b3480156101ab57600080fd5b506101c660048036038101906101c19190611cda565b61077d565b005b3480156101d457600080fd5b506101dd6109ca565b6040516101ea919061238a565b60405180910390f35b3480156101ff57600080fd5b5061021a60048036038101906102159190611cda565b610ab3565b6040516102299392919061243c565b60405180910390f35b34801561023e57600080fd5b50610247610b98565b60405161025491906125ba565b60405180910390f35b34801561026957600080fd5b50610284600480360381019061027f9190611c88565b610c49565b60405161029191906125ba565b60405180910390f35b3480156102a657600080fd5b506102af610c67565b6040516102bc919061230f565b60405180910390f35b3480156102d157600080fd5b506102da610c8d565b6040516102e7919061238a565b60405180910390f35b3480156102fc57600080fd5b5061031760048036038101906103129190611cda565b610d76565b005b34801561032557600080fd5b50610340600480360381019061033b9190611d1b565b610ef1565b005b61035c60048036038101906103579190611d6f565b611082565b005b34801561036a57600080fd5b5061037361126a565b604051610380919061238a565b60405180910390f35b34801561039557600080fd5b506103b060048036038101906103ab9190611d1b565b611390565b005b3480156103be57600080fd5b506103d960048036038101906103d49190611d6f565b611521565b005b3480156103e757600080fd5b5061040260048036038101906103fd9190611cda565b611641565b005b34801561041057600080fd5b506104196117bc565b604051610426919061238a565b60405180910390f35b34801561043b57600080fd5b5061045660048036038101906104519190611cda565b6118e2565b005b60008060009054906101000a900473ffffffffffffffffffffffffffffffffffffffff1673ffffffffffffffffffffffffffffffffffffffff166370a08231336040518263ffffffff1660e01b81526004016104b491906122f4565b60206040518083038186803b1580156104cc57600080fd5b505afa1580156104e0573d6000803e3d6000fd5b505050506040513d601f19601f820116820180604052508101906105049190611d98565b905090565b600481805160208101820180518482526020830160208501208183528095505050505050600091509050806000018054600181600116156101000203166002900480601f0160208091040260200160405190810160405280929190818152602001828054600181600116156101000203166002900480156105cb5780601f106105a0576101008083540402835291602001916105cb565b820191906000526020600020905b8154815290600101906020018083116105ae57829003601f168201915b5050505050908060010154908060020160009054906101000a900460ff16905083565b60008111610631576040517f08c379a00000000000000000000000000000000000000000000000000000000081526004016106289061249a565b60405180910390fd5b610639610458565b81111561067b576040517f08c379a00000000000000000000000000000000000000000000000000000000081526004016106729061247a565b60405180910390fd5b60008054906101000a900473ffffffffffffffffffffffffffffffffffffffff1673ffffffffffffffffffffffffffffffffffffffff1663503e6de13330846040518463ffffffff1660e01b81526004016106d89392919061232a565b602060405180830381600087803b1580156106f257600080fd5b505af1158015610706573d6000803e3d6000fd5b505050506040513d601f19601f8201168201806040525081019061072a9190611cb1565b503373ffffffffffffffffffffffffffffffffffffffff166108fc61074e83611b2f565b9081150290604051600060405180830381858888f19350505050158015610779573d6000803e3d6000fd5b5050565b600060038260405161078f91906122c2565b9081526020016040518091039020600101549050600115156003836040516107b791906122c2565b908152602001604051809103902060020160009054906101000a900460ff16151514610818576040517f08c379a000000000000000000000000000000000000000000000000000000000815260040161080f9061259a565b60405180910390fd5b610820610458565b811115610862576040517f08c379a0000000000000000000000000000000000000000000000000000000008152600401610859906124da565b60405180910390fd5b60008054906101000a900473ffffffffffffffffffffffffffffffffffffffff1673ffffffffffffffffffffffffffffffffffffffff1663503e6de13330846040518463ffffffff1660e01b81526004016108bf9392919061232a565b602060405180830381600087803b1580156108d957600080fd5b505af11580156108ed573d6000803e3d6000fd5b505050506040513d601f19601f820116820180604052508101906109119190611cb1565b50600760003373ffffffffffffffffffffffffffffffffffffffff1673ffffffffffffffffffffffffffffffffffffffff1681526020019081526020016000208290806001815401808255809150506001900390600052602060002001600090919091909150908051906020019061098a929190611b43565b507f7246a03edf415ab10aa2e7868f4768980d024a3a86ab68f98fcc21567c2f26d78282336040516109be939291906123fe565b60405180910390a15050565b60606005805480602002602001604051908101604052809291908181526020016000905b82821015610aaa578382906000526020600020018054600181600116156101000203166002900480601f016020809104026020016040519081016040528092919081815260200182805460018160011615610100020316600290048015610a965780601f10610a6b57610100808354040283529160200191610a96565b820191906000526020600020905b815481529060010190602001808311610a7957829003601f168201915b5050505050815260200190600101906109ee565b50505050905090565b600381805160208101820180518482526020830160208501208183528095505050505050600091509050806000018054600181600116156101000203166002900480601f016020809104026020016040519081016040528092919081815260200182805460018160011615610100020316600290048015610b755780601f10610b4a57610100808354040283529160200191610b75565b820191906000526020600020905b815481529060010190602001808311610b5857829003601f168201915b5050505050908060010154908060020160009054906101000a900460ff16905083565b60008060009054906101000a900473ffffffffffffffffffffffffffffffffffffffff1673ffffffffffffffffffffffffffffffffffffffff166370a08231306040518263ffffffff1660e01b8152600401610bf491906122d9565b60206040518083038186803b158015610c0c57600080fd5b505afa158015610c20573d6000803e3d6000fd5b505050506040513d601f19601f82011682018060405250810190610c449190611d98565b905090565b60026020528060005260406000206000915090508060000154905081565b600160009054906101000a900473ffffffffffffffffffffffffffffffffffffffff1681565b60606006805480602002602001604051908101604052809291908181526020016000905b82821015610d6d578382906000526020600020018054600181600116156101000203166002900480601f016020809104026020016040519081016040528092919081815260200182805460018160011615610100020316600290048015610d595780601f10610d2e57610100808354040283529160200191610d59565b820191906000526020600020905b815481529060010190602001808311610d3c57829003601f168201915b505050505081526020019060010190610cb1565b50505050905090565b33600160009054906101000a900473ffffffffffffffffffffffffffffffffffffffff1673ffffffffffffffffffffffffffffffffffffffff168173ffffffffffffffffffffffffffffffffffffffff1614610e07576040517f08c379a0000000000000000000000000000000000000000000000000000000008152600401610dfe9061253a565b60405180910390fd5b60011515600483604051610e1b91906122c2565b908152602001604051809103902060020160009054906101000a900460ff16151514610e7c576040517f08c379a0000000000000000000000000000000000000000000000000000000008152600401610e73906124fa565b60405180910390fd5b6000600483604051610e8e91906122c2565b908152602001604051809103902060020160006101000a81548160ff0219169083151502179055507fc08b02ec29b10837b03ba712be7196ccd02824c57a727dbd6c9718051c9437c682604051610ee591906123ac565b60405180910390a15050565b33600160009054906101000a900473ffffffffffffffffffffffffffffffffffffffff1673ffffffffffffffffffffffffffffffffffffffff168173ffffffffffffffffffffffffffffffffffffffff1614610f82576040517f08c379a0000000000000000000000000000000000000000000000000000000008152600401610f799061253a565b60405180910390fd5b604051806060016040528084815260200183815260200160011515815250600484604051610fb091906122c2565b90815260200160405180910390206000820151816000019080519060200190610fda929190611b43565b506020820151816001015560408201518160020160006101000a81548160ff021916908315150217905550905050600683908060018154018082558091505060019003906000526020600020016000909190919091509080519060200190611043929190611b43565b507f8e30f0bfd641cc6e305b31c187238475341a0a53bebf43813855be7183db15b883836040516110759291906123ce565b60405180910390a1505050565b600061108d82611b2f565b9050803410156110d2576040517f08c379a00000000000000000000000000000000000000000000000000000000081526004016110c99061257a565b60405180910390fd5b600081340390503373ffffffffffffffffffffffffffffffffffffffff166108fc829081150290604051600060405180830381858888f1935050505015801561111f573d6000803e3d6000fd5b50600061112a610b98565b90508084111561116f576040517f08c379a00000000000000000000000000000000000000000000000000000000081526004016111669061251a565b60405180910390fd5b60008054906101000a900473ffffffffffffffffffffffffffffffffffffffff1673ffffffffffffffffffffffffffffffffffffffff1663a9059cbb33866040518363ffffffff1660e01b81526004016111ca929190612361565b602060405180830381600087803b1580156111e457600080fd5b505af11580156111f8573d6000803e3d6000fd5b505050506040513d601f19601f8201168201806040525081019061121c9190611cb1565b5083600260003373ffffffffffffffffffffffffffffffffffffffff1673ffffffffffffffffffffffffffffffffffffffff1681526020019081526020016000206000018190555050505050565b6060600760003373ffffffffffffffffffffffffffffffffffffffff1673ffffffffffffffffffffffffffffffffffffffff168152602001908152602001600020805480602002602001604051908101604052809291908181526020016000905b82821015611387578382906000526020600020018054600181600116156101000203166002900480601f0160208091040260200160405190810160405280929190818152602001828054600181600116156101000203166002900480156113735780601f1061134857610100808354040283529160200191611373565b820191906000526020600020905b81548152906001019060200180831161135657829003601f168201915b5050505050815260200190600101906112cb565b50505050905090565b33600160009054906101000a900473ffffffffffffffffffffffffffffffffffffffff1673ffffffffffffffffffffffffffffffffffffffff168173ffffffffffffffffffffffffffffffffffffffff1614611421576040517f08c379a00000000000000000000000000000000000000000000000000000000081526004016114189061253a565b60405180910390fd5b60405180606001604052808481526020018381526020016001151581525060038460405161144f91906122c2565b90815260200160405180910390206000820151816000019080519060200190611479929190611b43565b506020820151816001015560408201518160020160006101000a81548160ff0219169083151502179055509050506005839080600181540180825580915050600190039060005260206000200160009091909190915090805190602001906114e2929190611b43565b507ffc9ecd7a6c2ca96d38526a0b9cc22f2474ff8e596dd348edaab06be905ebe37883836040516115149291906123ce565b60405180910390a1505050565b33600160009054906101000a900473ffffffffffffffffffffffffffffffffffffffff1673ffffffffffffffffffffffffffffffffffffffff168173ffffffffffffffffffffffffffffffffffffffff16146115b2576040517f08c379a00000000000000000000000000000000000000000000000000000000081526004016115a99061253a565b60405180910390fd5b60008054906101000a900473ffffffffffffffffffffffffffffffffffffffff1673ffffffffffffffffffffffffffffffffffffffff16631d43cc98836040518263ffffffff1660e01b815260040161160b91906125ba565b600060405180830381600087803b15801561162557600080fd5b505af1158015611639573d6000803e3d6000fd5b505050505050565b33600160009054906101000a900473ffffffffffffffffffffffffffffffffffffffff1673ffffffffffffffffffffffffffffffffffffffff168173ffffffffffffffffffffffffffffffffffffffff16146116d2576040517f08c379a00000000000000000000000000000000000000000000000000000000081526004016116c99061253a565b60405180910390fd5b600115156003836040516116e691906122c2565b908152602001604051809103902060020160009054906101000a900460ff16151514611747576040517f08c379a000000000000000000000000000000000000000000000000000000000815260040161173e906124ba565b60405180910390fd5b600060038360405161175991906122c2565b908152602001604051809103902060020160006101000a81548160ff0219169083151502179055507f24ba6c881728980191398db8dcfd8ed4f6aeb1c08df349d63f3b85075f3e86dd826040516117b091906123ac565b60405180910390a15050565b6060600860003373ffffffffffffffffffffffffffffffffffffffff1673ffffffffffffffffffffffffffffffffffffffff168152602001908152602001600020805480602002602001604051908101604052809291908181526020016000905b828210156118d9578382906000526020600020018054600181600116156101000203166002900480601f0160208091040260200160405190810160405280929190818152602001828054600181600116156101000203166002900480156118c55780601f1061189a576101008083540402835291602001916118c5565b820191906000526020600020905b8154815290600101906020018083116118a857829003601f168201915b50505050508152602001906001019061181d565b50505050905090565b60006004826040516118f491906122c2565b90815260200160405180910390206001015490506001151560048360405161191c91906122c2565b908152602001604051809103902060020160009054906101000a900460ff1615151461197d576040517f08c379a00000000000000000000000000000000000000000000000000000000081526004016119749061255a565b60405180910390fd5b611985610458565b8111156119c7576040517f08c379a00000000000000000000000000000000000000000000000000000000081526004016119be906124da565b60405180910390fd5b60008054906101000a900473ffffffffffffffffffffffffffffffffffffffff1673ffffffffffffffffffffffffffffffffffffffff1663503e6de13330846040518463ffffffff1660e01b8152600401611a249392919061232a565b602060405180830381600087803b158015611a3e57600080fd5b505af1158015611a52573d6000803e3d6000fd5b505050506040513d601f19601f82011682018060405250810190611a769190611cb1565b50600860003373ffffffffffffffffffffffffffffffffffffffff1673ffffffffffffffffffffffffffffffffffffffff16815260200190815260200160002082908060018154018082558091505060019003906000526020600020016000909190919091509080519060200190611aef929190611b43565b507f85ef3e0aa2f5a1974f940061956e15261f5ce81cdb010a26d5760e9d0c47b4d3828233604051611b23939291906123fe565b60405180910390a15050565b6000670de0b6b3a764000082029050919050565b828054600181600116156101000203166002900490600052602060002090601f016020900481019282601f10611b8457805160ff1916838001178555611bb2565b82800160010185558215611bb2579182015b82811115611bb1578251825591602001919060010190611b96565b5b509050611bbf9190611bc3565b5090565b5b80821115611bdc576000816000905550600101611bc4565b5090565b600081359050611bef81612782565b92915050565b600081519050611c0481612799565b92915050565b600082601f830112611c1b57600080fd5b8135611c2e611c2982612602565b6125d5565b91508082526020830160208301858383011115611c4a57600080fd5b611c5583828461272f565b50505092915050565b600081359050611c6d816127b0565b92915050565b600081519050611c82816127b0565b92915050565b600060208284031215611c9a57600080fd5b6000611ca884828501611be0565b91505092915050565b600060208284031215611cc357600080fd5b6000611cd184828501611bf5565b91505092915050565b600060208284031215611cec57600080fd5b600082013567ffffffffffffffff811115611d0657600080fd5b611d1284828501611c0a565b91505092915050565b60008060408385031215611d2e57600080fd5b600083013567ffffffffffffffff811115611d4857600080fd5b611d5485828601611c0a565b9250506020611d6585828601611c5e565b9150509250929050565b600060208284031215611d8157600080fd5b6000611d8f84828501611c5e565b91505092915050565b600060208284031215611daa57600080fd5b6000611db884828501611c73565b91505092915050565b6000611dcd8383611e86565b905092915050565b611dde816126f9565b82525050565b611ded816126b1565b82525050565b611dfc8161269f565b82525050565b6000611e0d8261263e565b611e178185612661565b935083602082028501611e298561262e565b8060005b85811015611e655784840389528151611e468582611dc1565b9450611e5183612654565b925060208a01995050600181019050611e2d565b50829750879550505050505092915050565b611e80816126c3565b82525050565b6000611e9182612649565b611e9b8185612672565b9350611eab81856020860161273e565b611eb481612771565b840191505092915050565b6000611eca82612649565b611ed48185612683565b9350611ee481856020860161273e565b611eed81612771565b840191505092915050565b6000611f0382612649565b611f0d8185612694565b9350611f1d81856020860161273e565b80840191505092915050565b6000611f36602683612683565b91507f4e6f207469656e65206c6f7320746f6b656e732071756520646573656120646560008301527f766f6c76657200000000000000000000000000000000000000000000000000006020830152604082019050919050565b6000611f9c603483612683565b91507f506f72206661766f722c20696e74726f6475636520756e612063616e7469646160008301527f6420706f73697469766120646520746f6b656e730000000000000000000000006020830152604082019050919050565b6000612002602d83612683565b91507f4c6120617472616363696f6e206e6f20657869737465206f207961206573746160008301527f20646164612064652062616a61000000000000000000000000000000000000006020830152604082019050919050565b6000612068603883612683565b91507f4e6f207469656e657320737566696369656e74657320746f6b656e732070617260008301527f61206d6f6e74617220656e206c6120617472616363696f6e00000000000000006020830152604082019050919050565b60006120ce602a83612683565b91507f4c6120636f6d696461206e6f20657869737465206f207961206573746120646160008301527f64612064652062616a61000000000000000000000000000000000000000000006020830152604082019050919050565b6000612134602083612683565b91507f436f6d70726120756e206e756d65726f206d656e6f7220646520746f6b656e736000830152602082019050919050565b6000612174602d83612683565b91507f4e6f207469656e6573207065726d69736f73207061726120656a65637574617260008301527f20657374612066756e63696f6e000000000000000000000000000000000000006020830152604082019050919050565b60006121da601c83612683565b91507f4c6120636f6d696461206e6f206573746120646973706f6e69626c65000000006000830152602082019050919050565b600061221a603683612683565b91507f4e6f207469656e657320737566696369656e746520656874657273207061726160008301527f20636f6d707261722074616e746f7320746f6b656e73000000000000000000006020830152604082019050919050565b6000612280601f83612683565b91507f4c6120617472616363696f6e206e6f206573746120646973706f6e69626c65006000830152602082019050919050565b6122bc816126ef565b82525050565b60006122ce8284611ef8565b915081905092915050565b60006020820190506122ee6000830184611df3565b92915050565b60006020820190506123096000830184611dd5565b92915050565b60006020820190506123246000830184611de4565b92915050565b600060608201905061233f6000830186611dd5565b61234c6020830185611df3565b61235960408301846122b3565b949350505050565b60006040820190506123766000830185611dd5565b61238360208301846122b3565b9392505050565b600060208201905081810360008301526123a48184611e02565b905092915050565b600060208201905081810360008301526123c68184611ebf565b905092915050565b600060408201905081810360008301526123e88185611ebf565b90506123f760208301846122b3565b9392505050565b600060608201905081810360008301526124188186611ebf565b905061242760208301856122b3565b6124346040830184611dd5565b949350505050565b600060608201905081810360008301526124568186611ebf565b905061246560208301856122b3565b6124726040830184611e77565b949350505050565b6000602082019050818103600083015261249381611f29565b9050919050565b600060208201905081810360008301526124b381611f8f565b9050919050565b600060208201905081810360008301526124d381611ff5565b9050919050565b600060208201905081810360008301526124f38161205b565b9050919050565b60006020820190508181036000830152612513816120c1565b9050919050565b6000602082019050818103600083015261253381612127565b9050919050565b6000602082019050818103600083015261255381612167565b9050919050565b60006020820190508181036000830152612573816121cd565b9050919050565b600060208201905081810360008301526125938161220d565b9050919050565b600060208201905081810360008301526125b381612273565b9050919050565b60006020820190506125cf60008301846122b3565b92915050565b6000604051905081810181811067ffffffffffffffff821117156125f857600080fd5b8060405250919050565b600067ffffffffffffffff82111561261957600080fd5b601f19601f8301169050602081019050919050565b6000819050602082019050919050565b600081519050919050565b600081519050919050565b6000602082019050919050565b600082825260208201905092915050565b600082825260208201905092915050565b600082825260208201905092915050565b600081905092915050565b60006126aa826126cf565b9050919050565b60006126bc826126cf565b9050919050565b60008115159050919050565b600073ffffffffffffffffffffffffffffffffffffffff82169050919050565b6000819050919050565b60006127048261270b565b9050919050565b60006127168261271d565b9050919050565b6000612728826126cf565b9050919050565b82818337600083830152505050565b60005b8381101561275c578082015181840152602081019050612741565b8381111561276b576000848401525b50505050565b6000601f19601f8301169050919050565b61278b8161269f565b811461279657600080fd5b50565b6127a2816126c3565b81146127ad57600080fd5b50565b6127b9816126ef565b81146127c457600080fd5b5056fea26469706673582212200a653777e7dd279322743a3ec16bb5841533fafca378f556789dfabb515277de64736f6c634300060c0033608060405234801561001057600080fd5b5060405161109d38038061109d83398181016040528101906100329190610099565b806002819055506002546000803373ffffffffffffffffffffffffffffffffffffffff1673ffffffffffffffffffffffffffffffffffffffff16815260200190815260200160002081905550506100e3565b600081519050610093816100cc565b92915050565b6000602082840312156100ab57600080fd5b60006100b984828501610084565b91505092915050565b6000819050919050565b6100d5816100c2565b81146100e057600080fd5b50565b610fab806100f26000396000f3fe608060405234801561001057600080fd5b50600436106100a95760003560e01c8063313ce56711610071578063313ce56714610166578063503e6de11461018457806370a08231146101b457806395d89b41146101e4578063a9059cbb14610202578063dd62ed3e14610232576100a9565b806306fdde03146100ae578063095ea7b3146100cc57806318160ddd146100fc5780631d43cc981461011a57806323b872dd14610136575b600080fd5b6100b6610262565b6040516100c39190610e3a565b60405180910390f35b6100e660048036038101906100e19190610d54565b61029b565b6040516100f39190610e1f565b60405180910390f35b61010461038d565b6040516101119190610e5c565b60405180910390f35b610134600480360381019061012f9190610d90565b610397565b005b610150600480360381019061014b9190610d05565b6103f6565b60405161015d9190610e1f565b60405180910390f35b61016e610771565b60405161017b9190610e77565b60405180910390f35b61019e60048036038101906101999190610d05565b610776565b6040516101ab9190610e1f565b60405180910390f35b6101ce60048036038101906101c99190610ca0565b610959565b6040516101db9190610e5c565b60405180910390f35b6101ec6109a1565b6040516101f99190610e3a565b60405180910390f35b61021c60048036038101906102179190610d54565b6109da565b6040516102299190610e1f565b60405180910390f35b61024c60048036038101906102479190610cc9565b610bbc565b6040516102599190610e5c565b60405180910390f35b6040518060400160405280600681526020017f455243414452000000000000000000000000000000000000000000000000000081525081565b600081600160003373ffffffffffffffffffffffffffffffffffffffff1673ffffffffffffffffffffffffffffffffffffffff16815260200190815260200160002060008573ffffffffffffffffffffffffffffffffffffffff1673ffffffffffffffffffffffffffffffffffffffff168152602001908152602001600020819055508273ffffffffffffffffffffffffffffffffffffffff163373ffffffffffffffffffffffffffffffffffffffff167f8c5be1e5ebec7d5bd14f71427d1e84f3dd0314c0f7b2291e5b200ac8c7c3b9258460405161037b9190610e5c565b60405180910390a36001905092915050565b6000600254905090565b80600260008282540192505081905550806000803373ffffffffffffffffffffffffffffffffffffffff1673ffffffffffffffffffffffffffffffffffffffff1681526020019081526020016000206000828254019250508190555050565b60008060008573ffffffffffffffffffffffffffffffffffffffff1673ffffffffffffffffffffffffffffffffffffffff1681526020019081526020016000205482111561044357600080fd5b600160008573ffffffffffffffffffffffffffffffffffffffff1673ffffffffffffffffffffffffffffffffffffffff16815260200190815260200160002060003373ffffffffffffffffffffffffffffffffffffffff1673ffffffffffffffffffffffffffffffffffffffff168152602001908152602001600020548211156104cc57600080fd5b61051d826000808773ffffffffffffffffffffffffffffffffffffffff1673ffffffffffffffffffffffffffffffffffffffff16815260200190815260200160002054610c4390919063ffffffff16565b6000808673ffffffffffffffffffffffffffffffffffffffff1673ffffffffffffffffffffffffffffffffffffffff168152602001908152602001600020819055506105ee82600160008773ffffffffffffffffffffffffffffffffffffffff1673ffffffffffffffffffffffffffffffffffffffff16815260200190815260200160002060003373ffffffffffffffffffffffffffffffffffffffff1673ffffffffffffffffffffffffffffffffffffffff16815260200190815260200160002054610c4390919063ffffffff16565b600160008673ffffffffffffffffffffffffffffffffffffffff1673ffffffffffffffffffffffffffffffffffffffff16815260200190815260200160002060003373ffffffffffffffffffffffffffffffffffffffff1673ffffffffffffffffffffffffffffffffffffffff168152602001908152602001600020819055506106bf826000808673ffffffffffffffffffffffffffffffffffffffff1673ffffffffffffffffffffffffffffffffffffffff16815260200190815260200160002054610c5a90919063ffffffff16565b6000808573ffffffffffffffffffffffffffffffffffffffff1673ffffffffffffffffffffffffffffffffffffffff168152602001908152602001600020819055508273ffffffffffffffffffffffffffffffffffffffff168473ffffffffffffffffffffffffffffffffffffffff167fddf252ad1be2c89b69c2b068fc378daa952ba7f163c4a11628f55a4df523b3ef8460405161075e9190610e5c565b60405180910390a3600190509392505050565b600281565b60008060008573ffffffffffffffffffffffffffffffffffffffff1673ffffffffffffffffffffffffffffffffffffffff168152602001908152602001600020548211156107c357600080fd5b610814826000808773ffffffffffffffffffffffffffffffffffffffff1673ffffffffffffffffffffffffffffffffffffffff16815260200190815260200160002054610c4390919063ffffffff16565b6000808673ffffffffffffffffffffffffffffffffffffffff1673ffffffffffffffffffffffffffffffffffffffff168152602001908152602001600020819055506108a7826000808673ffffffffffffffffffffffffffffffffffffffff1673ffffffffffffffffffffffffffffffffffffffff16815260200190815260200160002054610c5a90919063ffffffff16565b6000808573ffffffffffffffffffffffffffffffffffffffff1673ffffffffffffffffffffffffffffffffffffffff168152602001908152602001600020819055508273ffffffffffffffffffffffffffffffffffffffff168473ffffffffffffffffffffffffffffffffffffffff167fddf252ad1be2c89b69c2b068fc378daa952ba7f163c4a11628f55a4df523b3ef846040516109469190610e5c565b60405180910390a3600190509392505050565b60008060008373ffffffffffffffffffffffffffffffffffffffff1673ffffffffffffffffffffffffffffffffffffffff168152602001908152602001600020549050919050565b6040518060400160405280600981526020017f4144522d746f6b656e000000000000000000000000000000000000000000000081525081565b60008060003373ffffffffffffffffffffffffffffffffffffffff1673ffffffffffffffffffffffffffffffffffffffff16815260200190815260200160002054821115610a2757600080fd5b610a78826000803373ffffffffffffffffffffffffffffffffffffffff1673ffffffffffffffffffffffffffffffffffffffff16815260200190815260200160002054610c4390919063ffffffff16565b6000803373ffffffffffffffffffffffffffffffffffffffff1673ffffffffffffffffffffffffffffffffffffffff16815260200190815260200160002081905550610b0b826000808673ffffffffffffffffffffffffffffffffffffffff1673ffffffffffffffffffffffffffffffffffffffff16815260200190815260200160002054610c5a90919063ffffffff16565b6000808573ffffffffffffffffffffffffffffffffffffffff1673ffffffffffffffffffffffffffffffffffffffff168152602001908152602001600020819055508273ffffffffffffffffffffffffffffffffffffffff163373ffffffffffffffffffffffffffffffffffffffff167fddf252ad1be2c89b69c2b068fc378daa952ba7f163c4a11628f55a4df523b3ef84604051610baa9190610e5c565b60405180910390a36001905092915050565b6000600160008473ffffffffffffffffffffffffffffffffffffffff1673ffffffffffffffffffffffffffffffffffffffff16815260200190815260200160002060008373ffffffffffffffffffffffffffffffffffffffff1673ffffffffffffffffffffffffffffffffffffffff16815260200190815260200160002054905092915050565b600082821115610c4f57fe5b818303905092915050565b600080828401905083811015610c6c57fe5b8091505092915050565b600081359050610c8581610f47565b92915050565b600081359050610c9a81610f5e565b92915050565b600060208284031215610cb257600080fd5b6000610cc084828501610c76565b91505092915050565b60008060408385031215610cdc57600080fd5b6000610cea85828601610c76565b9250506020610cfb85828601610c76565b9150509250929050565b600080600060608486031215610d1a57600080fd5b6000610d2886828701610c76565b9350506020610d3986828701610c76565b9250506040610d4a86828701610c8b565b9150509250925092565b60008060408385031215610d6757600080fd5b6000610d7585828601610c76565b9250506020610d8685828601610c8b565b9150509250929050565b600060208284031215610da257600080fd5b6000610db084828501610c8b565b91505092915050565b610dc281610ec0565b82525050565b6000610dd382610e92565b610ddd8185610e9d565b9350610ded818560208601610f03565b610df681610f36565b840191505092915050565b610e0a81610eec565b82525050565b610e1981610ef6565b82525050565b6000602082019050610e346000830184610db9565b92915050565b60006020820190508181036000830152610e548184610dc8565b905092915050565b6000602082019050610e716000830184610e01565b92915050565b6000602082019050610e8c6000830184610e10565b92915050565b600081519050919050565b600082825260208201905092915050565b6000610eb982610ecc565b9050919050565b60008115159050919050565b600073ffffffffffffffffffffffffffffffffffffffff82169050919050565b6000819050919050565b600060ff82169050919050565b60005b83811015610f21578082015181840152602081019050610f06565b83811115610f30576000848401525b50505050565b6000601f19601f8301169050919050565b610f5081610eae565b8114610f5b57600080fd5b50565b610f6781610eec565b8114610f7257600080fd5b5056fea2646970667358221220acba7d164c36137a3bc29fff24ff2853ebe4289a37981143bc81585c1878b16d64736f6c634300060c0033",
  "immutableReferences": {},
  "source": "//SPDX-License-Identifier: UNLICENSED\npragma solidity >=0.4.4 <0.9.0;\npragma experimental ABIEncoderV2;\nimport \"./ERC20.sol\";\n\ncontract Disney{\n    \n    \n    //------------------------------------------DECLARACIONES INICIALES----------------------------------------\n    //Instancia del contrato token\n    ERC20Basic private token;\n    \n    //Direccion de Disney\n    address payable public owner;\n    \n    \n    //Constructor\n    constructor () public{\n        token = new ERC20Basic(100000);\n        owner = msg.sender;\n    }\n    \n    //Estructura de datos para almacenar los datos de los clientes\n    \n    struct cliente{\n        uint tokens_comprados;\n        string [] atracciones_disfrutadas;\n        \n    }\n    \n    //Mpaping para el registro de clientes\n    mapping (address => cliente ) public clientes;\n    \n    \n    //---------------------------------------------GESTION DE TOKENS-------------------------------------------------\n    \n    //Funcion para establecer el precio del TOKENS\n    function precioToken(uint _numToken) internal pure returns (uint){\n        //Conversion de token a Ethers 1 Token --> 1 ether\n        return _numToken*(1 ether);\n    }\n    \n    //Funcion para comprar tokens en Disney\n    function compraToken (uint _numTokens) public payable {\n        //coste de los tokens a comprar\n        uint coste = precioToken(_numTokens);\n        //evaluacion del dinero que el cliente paga por los tokens\n        require(msg.value >= coste, \"No tienes suficiente ehters para comprar tantos tokens\");\n        //Cambio a devolver al cliente \n        uint returnValue = msg.value - coste;\n        //Disney devuelve el cambio al cliente\n        msg.sender.transfer(returnValue);\n        //Obtener num token disponible\n        uint balance = balanceOf();\n        require(_numTokens <= balance, \"Compra un numero menor de tokens\");\n        //Se transfiere el numero de tokens al cliente\n        token.transfer(msg.sender, _numTokens);\n        //Registro de tokens tokens_comprados\n        clientes[msg.sender].tokens_comprados = _numTokens;\n        \n        \n    }\n    \n    //Balance de tokens del contrato dinsey\n    function balanceOf() public view returns (uint){\n        return token.balanceOf(address(this));\n    }\n    \n    // devolver mi numero de tokens\n    function getMisTokens() public view returns (uint){\n        return token.balanceOf(msg.sender);\n    }\n    \n    //generar mas tokens para dinsey\n    function generaToken(uint _numTokens) public only(msg.sender){\n        token.increaseTotalSupply(_numTokens);\n    }\n    \n    \n    //modificador para controlar las funciones ejecutrables por dinsey\n    modifier only(address _direccion){\n        require(_direccion == owner, \"No tienes permisos para ejecutar esta funcion\");\n        _;\n    }\n    \n      //---------------------------------------------GESTION DE dinsey-------------------------------------------------\n        \n    //Eventos\n    \n    event nueva_atraccion(string, uint);\n     event nueva_comida(string, uint);\n    event baja_atraccion(string);\n      event baja_comida(string);\n    event disfruta_atraccion(string,uint, address);\nevent disfruta_comida(string,uint, address);\n    \n    struct atraccion{\n        string nombre_atraccion;\n        uint precio_atraccion;\n        bool estado_atraccion;\n    }\n    \n    struct comida{\n        string nombre_comida;\n        uint precio_comida;\n        bool estado_comida;\n        \n    }\n    //Mapping para relacionar nombre de atracion con su estructura de datos\n    mapping (string => atraccion) public mappingAtracciones;\n     //Mapping para relacionar nombre de comida con su estructura de datos\n    mapping (string => comida) public mappingComidas;\n    //almacenar el nombre de las atracciones\n    string[] atracciones;\n    string[] comidas;\n    //mappgin para relacionar una identidad(cliente) con su historial en Disney\n    mapping (address => string[]) historialAtracciones;\n    mapping (address => string[]) historiaComidas;\n\n    //funcion para crear atracciones , solo dinsey podra crearlas\n    function nuevaAtraccion(string memory _nombreAtraccion, uint _precio) public only(msg.sender){\n        // creacion atraccion en Disney\n      mappingAtracciones[_nombreAtraccion] = atraccion(_nombreAtraccion, _precio, true);\n      atracciones.push(_nombreAtraccion);\n      //emisison evento nuevoa atracciones\n      emit nueva_atraccion(_nombreAtraccion, _precio);\n      \n        \n    }\n    \n    //Crear nuevos menus para la comida en Disney (solo ejecutable por Disney)\n    function crearMenus(string memory _nombreMenu, uint _precio) public only(msg.sender){\n             // creacion comida en Disney\n      mappingComidas[_nombreMenu] = comida(_nombreMenu, _precio, true);\n     comidas.push(_nombreMenu);\n      //emisison evento nuevoa atracciones\n      emit nueva_comida(_nombreMenu, _precio);  \n    }\n    \n    function bajaComida(string memory _nombreComida) public only(msg.sender){\n        require(mappingComidas[_nombreComida].estado_comida  == true, \"La comida no existe o ya esta dada de baja\");\n\n        //Cambiamos el estado de la atracciones\n         mappingComidas[_nombreComida].estado_comida = false;\n         //Emision del evento\n         emit baja_comida(_nombreComida);\n    }\n      \n    function bajaAtraccion(string memory _nombreAtraccion) public only(msg.sender){\n        require(mappingAtracciones[_nombreAtraccion].estado_atraccion  == true, \"La atraccion no existe o ya esta dada de baja\");\n\n        //Cambiamos el estado de la atracciones\n         mappingAtracciones[_nombreAtraccion].estado_atraccion = false;\n         //Emision del evento\n         emit baja_atraccion(_nombreAtraccion);\n    }\n        \n    function atraccionesDisponibles() public view returns(string [] memory){\n        \n        return atracciones;\n    }\n    \n      function comidasDisponibles() public view returns(string [] memory){\n        \n        return comidas;\n    }\n    \n    //Funcion para subirse a la atraccion y pagar\n    function subirseAtraccion(string memory _nombreAtraccion) public {\n        //precio de la atraccion\n        uint tokens_atraccion =  mappingAtracciones[_nombreAtraccion].precio_atraccion;\n    //verifica el estado de la atraccion\n            require(mappingAtracciones[_nombreAtraccion].estado_atraccion  == true, \"La atraccion no esta disponible\");\n            //Verificar el numero de tokens que tiene el cliente para subirse a la atraccion\n            require(tokens_atraccion <= getMisTokens(), \"No tienes suficientes tokens para montar en la atraccion\");\n            //cliente paga la atraccion\n            token.transfer_disney(msg.sender, address(this),tokens_atraccion );\n            //almacenar en el historialAtracciones\n            historialAtracciones[msg.sender].push(_nombreAtraccion);\n            emit disfruta_atraccion(_nombreAtraccion,tokens_atraccion, msg.sender);\n\n        \n    }\n    \n    //Funcion para subirse a la atraccion y pagar\n    function comprarComida(string memory _nombreComida) public {\n        //precio de la atraccion\n        uint tokens_comida =  mappingComidas[_nombreComida].precio_comida;\n    //verifica el estado de la atraccion\n            require( mappingComidas[_nombreComida].estado_comida  == true, \"La comida no esta disponible\");\n            //Verificar el numero de tokens que tiene el cliente para subirse a la atraccion\n            require(tokens_comida <= getMisTokens(), \"No tienes suficientes tokens para montar en la atraccion\");\n            //cliente paga la atraccion\n            token.transfer_disney(msg.sender, address(this),tokens_comida );\n            //almacenar en el historialAtracciones\n            historiaComidas[msg.sender].push(_nombreComida);\n            emit disfruta_comida(_nombreComida,tokens_comida, msg.sender);\n\n        \n    }\n    \n    function historialAtraccionesDisfrutadas() public view returns(string[] memory){\n        return historialAtracciones[msg.sender];\n    }\n     function historialComidasDisfrutadas() public view returns(string[] memory){\n        return historiaComidas[msg.sender];\n    }\n    \n    function devolverTokens(uint _numTokens) public payable{\n        //el numero de tokens a deolver es positivo\n        require(_numTokens>0, \"Por favor, introduce una cantidad positiva de tokens\");\n        //El usuario debe tener el num de tokens que desea devolver \n        require(_numTokens <= getMisTokens(), \"No tiene los tokens que desea devolver\");\n        //el cliente devuelve los tokens\n        token.transfer_disney(msg.sender, address(this), _numTokens);\n        //devolucion de los ethers al cliente\n        msg.sender.transfer(precioToken(_numTokens));\n\n        \n    }\n    \n}",
  "sourcePath": "C:\\personal\\proyectos Personales\\DineyToken app\\disney-token\\src\\contracts\\Disney.sol",
  "compiler": {
    "name": "solc",
    "version": "0.6.12+commit.27d51765.Emscripten.clang"
  },
  "schemaVersion": "3.4.4",
  "updatedAt": "2021-12-28T15:39:20.819Z",
  "networkType": "ethereum",
  "devdoc": {
    "kind": "dev",
    "methods": {},
    "version": 1
  },
  "userdoc": {
    "kind": "user",
    "methods": {},
    "version": 1
  }
}